:0300000002097979
:0C097900787FE4F6D8FD75817E0209C08D
:100A050001080006663132333435360509414C415B
:100A1500524D0A544865792074686572652C085EE4
:100A250057656C636F6D65210C34456E7465722076
:100A3500706173732E2E0E2650617373206D69736A
:100A45006D61746368210F17506C7320747279207F
:100A5500616761696E2E2E02704F6B094049206EE9
:100A65006565642075720B497061737320706C73D2
:100A75002E2E2E090E70617373207273743F026EF1
:060A85004F70026C536883
:03000300020C5597
:050C5500D2B2C2B4326E
:080C4D00120B7F1208E380FE88
:100B7F00C2B6C2B5D2B77F017E00120BD0120C5A8B
:100B8F0075A0387F04120BB475A00F7F01120BB440
:0D0B9F00C2B0C2B1C2B4D288D2A8D2AF2277
:050C5A00C2B6C2B52284
:050C5F00C2B6D2B5226F
:080BAC002575F8E6F5A07F01B4
:020BB4008F7D33
:100BB600E4F57EE57EC3957D500FD2B77F037E00B8
:090BC600120BD0C2B7057E80EAD3
:010BCF002203
:100BD000E4FDEDC39FE49E501853890F43890175CE
:100BE0008AFD758C4BD28C308DFDC28CC28D0D80F0
:010BF000E123
:010BF10022E1
:100C0F00120C5A75A0807F01120BB4E4F5A0120CE0
:060C1F005F7F01020BB42F
:100C2500120C5A75A0C07F01120BB4E4F5A0120C8A
:060C35005F7F01020BB419
:100C3B007F1E7E00120BD0120C5A75A0017F010291
:020C4B000BB4E8
:100A8C000508120C3B120C0FE508D394034017D247
:100A9C00B4E4F57374092573120BAE0573E573C3D7
:100AAC00940540F080FEE4F57374342573120BAE9C
:0F0ABC000573E573C3940C40F0120C250208007B
:10080000E4F574D297D296D295C291C292C293C2A5
:1008100094209505120B45800E209605120ACB8078
:100820000620970C120B0874772574F8A607057438
:10083000E574C3940640CCE4F57674772576F8E643
:10084000FF74662576F8E66F6030120C3B120C0FD1
:10085000E4F5757426120BAC0575E575C3940E406E
:10086000F2120C25E4F5757417120BAC0575E575DD
:10087000C3940E40F2120A8C80090576E576C39483
:100880000640B7120C3B120C0FE4F5757470120B96
:10089000AC0575E575C3940240F2D2B0C2B1120C3A
:1008A0003B120C0FE4F575746E120BAC0575E57513
:1008B000C3940240F27F647E00120BD0C2B0D2B16A
:1008C000120C3B120C0FE4F575746C120BAC057531
:1008D000E575C3940240F27F647E00120BD0C2B073
:0208E000C2B1A3
:0108E20022F3
:100B4500D291D292D293D294C297C296C295209452
:100B5500087F31120BF27F31222093087F34120B6C
:100B6500F27F34222092087F37120BF27F37222042
:0A0B750091077F2A120BF27F2A225B
:100ACB00D291D292D293D294C297C296C2952094CD
:100ADB00087F32120BF27F32222093087F35120BE4
:100AEB00F27F35222092087F38120BF27F382220BA
:0D0AFB0091087F30120BF27F30227F242201
:100B0800D291D292D293D294C297C296C29520948F
:100B1800087F33120BF27F33222093087F36120BA3
:100B2800F27F36222092087F39120BF27F39222079
:0D0B380091087F23120BF27F23227F2422DD
:100BF2003094FD3093FA3092F73091F48FA07F0158
:0D0C0200120BB475A0067F017E00020BD01E
:1008E300D290E4F508120C0FE4F5727454257212D9
:1008F3000BAE3090090572E572C3940A40ED209067
:1009030002801C120C25E4F572745E2572120BAE84
:100913003090090572E572C3940840ED20900512EA
:100923000C3B8005120C3B80BC120C0FE4F5727477
:10093300402572120BAE0572E572C3940940F012A2
:100943000C25E4F57274492572120BAE0572E5723B
:10095300C3940B40F0120A8C7F01120BB47F011277
:100963000BB4120C3B120C5A75A0027F01120BB48C
:06097300E4F5900208E328
:10098500020C4DE493A3F8E493A34003F68001F22F
:1009950008DFF48029E493A3F85407240CC8C33373
:1009A500C4540F4420C8834004F456800146F6DF42
:1009B500E4800B0102040810204080900A05E47EC3
:1009C500019360BCA3FF543F30E509541FFEE49337
:1009D500A360010ECF54C025E060A840B8E493A3FE
:1009E500FAE493A3F8E493A3C8C582C8CAC583CA29
:1009F500F0A3C8C582C8CAC583CADFE9DEE780BEE1
:010A8B00006A
:00000001FF
